{
  "contractName": "Rating",
  "abi": [
    {
      "constant": true,
      "inputs": [
        {
          "name": "",
          "type": "bytes32"
        }
      ],
      "name": "ratingsReceived",
      "outputs": [
        {
          "name": "",
          "type": "uint8"
        }
      ],
      "payable": false,
      "stateMutability": "view",
      "type": "function"
    },
    {
      "constant": true,
      "inputs": [
        {
          "name": "",
          "type": "uint256"
        }
      ],
      "name": "bookList",
      "outputs": [
        {
          "name": "",
          "type": "bytes32"
        }
      ],
      "payable": false,
      "stateMutability": "view",
      "type": "function"
    },
    {
      "inputs": [
        {
          "name": "bookNames",
          "type": "bytes32[]"
        }
      ],
      "payable": false,
      "stateMutability": "nonpayable",
      "type": "constructor"
    },
    {
      "constant": true,
      "inputs": [
        {
          "name": "book",
          "type": "bytes32"
        }
      ],
      "name": "totalVotesFor",
      "outputs": [
        {
          "name": "",
          "type": "uint8"
        }
      ],
      "payable": false,
      "stateMutability": "view",
      "type": "function"
    },
    {
      "constant": false,
      "inputs": [
        {
          "name": "book",
          "type": "bytes32"
        }
      ],
      "name": "voteForBook",
      "outputs": [],
      "payable": false,
      "stateMutability": "nonpayable",
      "type": "function"
    }
  ],
  "bytecode": "0x608060405234801561001057600080fd5b5060405161034c38038061034c8339810180604052602081101561003357600080fd5b81019080805164010000000081111561004b57600080fd5b8281019050602081018481111561006157600080fd5b815185602082028301116401000000008211171561007e57600080fd5b5050929190505050806001908051906020019061009c9291906100a3565b5050610115565b8280548282559060005260206000209081019282156100df579160200282015b828111156100de5782518255916020019190600101906100c3565b5b5090506100ec91906100f0565b5090565b61011291905b8082111561010e5760008160009055506001016100f6565b5090565b90565b610228806101246000396000f3fe608060405234801561001057600080fd5b506004361061004c5760003560e01c80631404093a146100515780632f265cf71461007f5780635f4187b0146100c7578063ad8514c41461010f575b600080fd5b61007d6004803603602081101561006757600080fd5b8101908080359060200190929190505050610151565b005b6100ab6004803603602081101561009557600080fd5b8101908080359060200190929190505050610192565b604051808260ff1660ff16815260200191505060405180910390f35b6100f3600480360360208110156100dd57600080fd5b81019080803590602001909291905050506101bb565b604051808260ff1660ff16815260200191505060405180910390f35b61013b6004803603602081101561012557600080fd5b81019080803590602001909291905050506101db565b6040518082815260200191505060405180910390f35b600160008083815260200190815260200160002060008282829054906101000a900460ff160192506101000a81548160ff021916908360ff16021790555050565b600080600083815260200190815260200160002060009054906101000a900460ff169050919050565b60006020528060005260406000206000915054906101000a900460ff1681565b600181815481106101e857fe5b90600052602060002001600091509050548156fea165627a7a723058209af7a3524d6e0b28190eeb56d499479b7877867cecb0906c8f2cd3cb7431ea810029",
  "source": "pragma solidity >=0.4.21 <0.6.0;\r\n// We have to specify what version of compiler this code will compile with\r\n\r\ncontract Rating {\r\n  /* mapping field below is equivalent to an associative array or hash.\r\n  */\r\n  \r\n  mapping (bytes32 => uint8) public ratingsReceived;\r\n  \r\n  /* We will use an array of bytes32 to store the list of books\r\n  */\r\n  \r\n  bytes32[] public bookList;\r\n\r\n  /* This is the constructor which will be called once when you\r\n  deploy the contract to the blockchain. When we deploy the contract,\r\n  we will pass an array of books for which users will give ratings\r\n  */\r\n  constructor(bytes32[] memory bookNames) public {\r\n    bookList = bookNames;\r\n  }\r\n\r\n  // This function returns the total ratings a book has received so far\r\n  function totalVotesFor(bytes32 book) view public returns (uint8) {\r\n    return ratingsReceived[book];\r\n  }\r\n\r\n  // This function increments the vote count for the specified book. Equivalent to upvoting\r\n  function voteForBook(bytes32 book) public {\r\n    ratingsReceived[book] += 1;\r\n  }\r\n}",
  "sourcePath": "D:/Estudos/BlockChain/Ethereum/SmartContracts/bookRatingApp/rating/contracts/Rating.sol",
  "compiler": {
    "name": "solc",
    "version": "0.5.8+commit.23d335f2.Emscripten.clang"
  },
  "schemaVersion": "3.0.15",
  "updatedAt": "2019-09-09T20:51:23.467Z",
  "devdoc": {
    "methods": {}
  },
  "userdoc": {
    "methods": {}
  }
}